:1000000012C019C018C017C016C015C014C013C044
:1000100012C011C010C00FC00EC00DC00CC00BC06C
:100020000AC009C008C011241FBECFE5D4E0DEBF5E
:10003000CDBF02D064C0E4CF8A988C9A8D9AA59ADD
:10004000A49A83B7836083BF40E050E08FEF9FEFB7
:10005000E0E0F0E0A4E6B0E04115510531F422B74C
:10006000829B0CC012BEE2B7F0E022B7829941C079
:1000700082B790E08E1B9F0B40E050E022B722B782
:100080008436910534F486359105B4F52FEF3FEFB2
:1000900008C021E030E08337910574F1893C910577
:1000A0002CF497FF05C080E090E002C088EC90E05F
:1000B00062B770E0EC01C456D1096C177D0734F4C7
:1000C0002130310519F49498959810C062B770E00A
:1000D000ED01C81BD90B949A959A6C177D0734F4DF
:1000E0002F3F3F4F19F4AD98AC98B6CFAD9AAC9A6C
:1000F000B3CF41E050E0C2CF20E030E0D2CFF8945F
:02010000FFCF2F
:00000001FF
